:020000040800F2
:10000000180500200D020008F92200082920000828
:10001000F522000855030008352A000800000000FA
:100020000000000000000000000000007B2300082A
:100030005903000800000000FB2200087D2300088F
:1000400027020008270200082702000827020008EC
:1000500027020008270200082702000827020008DC
:10006000270200086F030008270200082702000883
:1000700027020008270200082702000827020008BC
:1000800027020008270200082702000827020008AC
:100090002702000827020008270200087903000849
:1000A000270200082702000827020008270200088C
:1000B000270200082702000827020008270200087C
:1000C000270200082702000827020008270200086C
:1000D000270200082702000827020008270200085C
:1000E0005B030008FD220008270200082702000821
:1000F000270200082702000827020008270200083C
:10010000270200082702000827020008270200082B
:10011000270200082702000827020008270200081B
:10012000270200082702000827020008270200080B
:1001300027020008270200082702000827020008FB
:1001400027020008270200082702000827020008EB
:1001500027020008270200082702000827020008DB
:1001600027020008270200082702000827020008CB
:1001700027020008270200082702000800000000EC
:1001800027020008270200082702000827020008AB
:10019000270200082702000827020008270200089B
:1001A000270200082702000827020008270200088B
:1001B000270200082702000827020008270200087B
:1001C000270200082702000800000000270200089C
:1001D000270200082702000827020008270200085B
:1001E000270200082702000827020008270200084B
:1001F0002702000827020008DFF80CD000F098F86A
:10020000004800477930000818050020064880475C
:1002100006480047FEE7FEE7FEE7FEE7FEE7FEE7EB
:10022000FEE7FEE7FEE7FEE785240008F901000887
:100230002DE9F05F0546002092469B46884606461B
:10024000814640241BE0284641464746224600F0AE
:100250005EF853465A46C01A914110D311461846CB
:10026000224600F045F82D1A67EB01084F4622465A
:100270000120002100F03CF817EB00094E41201E40
:10028000A4F10104DFDC484631462A464346BDE876
:10029000F09FD2B201E000F8012B491EFBD270475B
:1002A0000022F6E710B513460A4604461946FFF742
:1002B000F0FF204610BD421C10F8011B0029FBD1A5
:1002C000801A704730B50B460146002020220124D9
:1002D00009E021FA02F59D4205D303FA02F5491B14
:1002E00004FA02F52844151EA2F10102F1DC30BD2A
:1002F000202A04DB203A00FA02F1002070479140E6
:10030000C2F1200320FA03F3194390407047202ADA
:1003100004DB203A21FA02F00021704721FA02F3AF
:10032000D040C2F1200291400843194670470000B6
:10033000064C074D06E0E06840F0010394E8070032
:1003400098471034AC42F6D3FFF75AFF0037000845
:100350002037000800BFFEE7704710B54FF480500B
:1003600000F07EF84FF4005000F07AF810BD10B5A0
:10037000082000F075F810BD10B54FF4807000F043
:100380006FF84FF4007000F06BF810BD704700007C
:1003900070B5044600F08CF906462546681C10B17D
:1003A00004480078054400BF00F082F9801BA84291
:1003B000FAD370BD3000002010B50446082C10D1CF
:1003C000C820FFF7E5FF00202349086023480068A4
:1003D000401C2249086008460068042801DD00200E
:1003E0000860B4F5007F35D1C820FFF7D1FF1A4867
:1003F0000068401C1849086018480068012806D1A8
:1004000008460068022825DD0020086022E0134825
:100410000068022807D11048006803281ADD002070
:100420000D49086016E00D480068032807D10A4806
:10043000006804280EDD0020074908600AE007482C
:100440000068042806D104480068022802DD002064
:100450000149086010BD00000400002008000020D1
:1004600010B5044604480068204020B102480460EA
:100470002046FFF7A1FF10BD143C0140F8B502462D
:100480000B46002100250024002000BFE4E00126E7
:1004900006FA01F51E6806EA0504AC4271D15E68F1
:1004A000022E02D05E68122E13D1CF0802F1200670
:1004B00056F827004E07F70E0F26BE40B0434F07F1
:1004C000FF0E1E69BE403043CF0802F1200646F8F9
:1004D000270010684F000326BE40B0431E7906F087
:1004E00003064F00BE40304310605E68012E08D006
:1004F0005E68022E05D05E68112E02D05E68122E54
:1005000013D190684F000326BE40B0434F00DE6811
:10051000BE4030439060506801268E40B0431E7943
:10052000C6F300168E4030435060D0684F0003265B
:10053000BE40B0434F009E68BE403043D0605E680E
:1005400006F08056B6F1805FA8D100BF444E3668F1
:1005500046F48046424F3E603E46366806F480468A
:10056000009600BF00BF3F4E8F0856F827008E0749
:10057000370F0F26BE40B0433B4EB24202D1002699
:100580002EE068E0394EB24201D1012628E0384E13
:10059000B24201D1022623E0364EB24201D10326F7
:1005A0001EE0354EB24201D1042619E0334EB2426C
:1005B00001D1052614E0324EB24201D106260FE0E9
:1005C000304EB24201D107260AE02F4EB24201D18D
:1005D000082605E02D4EB24201D1092600E00A2688
:1005E0008F073F0FBE4030431E4E8F0846F827004E
:1005F000274E3068A0435E6806F48036B6F5803F2B
:1006000000D12043224E3060361D3068A0435E6822
:1006100006F40036B6F5003F00D120431C4E361DCF
:100620003060361D3068A0435E6806F48016B6F56B
:10063000801F00D12043164E08363060361D3068CA
:10064000A0435E6806F40016B6F5001F00D12043F3
:100650000F4E0C363060491C1029FFF418AFF8BD5E
:1006600044380240083801400000024000040240C3
:1006700000080240000C024000100240001402403A
:1006800000180240001C02400020024000240240EA
:10069000003C0140024613690B400BB1012000E011
:1006A000002070470AB1816101E00B04836170474B
:1006B00001480068704700002800002003480068D7
:1006C0000349097808440149086070472800002060
:1006D0003000002010B5032000F0A0F8002000F04A
:1006E00005F800F029F8002010BD000070B50446A0
:1006F0000E4800784FF47A71B1FBF0F00C490968AC
:10070000B1FBF0F5284601F092FB08B1012070BD65
:10071000102C07D200222146501E00F041F8054857
:10072000046001E00120F2E70020F0E73000002043
:10073000340000202C00002008B500BF0F480068DE
:1007400040F080500D4908600846006800F0805075
:10075000009000BF00BF00BF081D006840F480404B
:10076000091D08600846006800F48040009000BF42
:1007700000BF042000F052F808BD000040380240DD
:1007800001460846002809DB00F01F0301229A40B9
:1007900043099B0003F1E023C3F8002100BF704729
:1007A0002DE9F05F80460D461646002702F058F905
:1007B000074639462A46334601F00700C0F1070ACA
:1007C000BAF1040F02D94FF0040A01E0C0F1070AA0
:1007D000D14600F1040ABAF1070F02D24FF0000A25
:1007E00001E0A0F1030AD4464FF0010A0AFA09FA1F
:1007F000AAF1010A0AEA020A0AFA0CFA4FF0010BFE
:100800000BFA0CFBABF1010B0BEA030B4AEA0B04EE
:100810002146404602F02CF9BDE8F09F00BF00F0F1
:100820000702064B19684FF6FF031940044B0B43B0
:1008300043EA0221014B196000BF70470CED00E054
:100840000000FA0538B5002400BF2048006840F0D9
:1008500080501E4908600846006800F080500090F3
:1008600000BF00BF1A48006840F480301849086093
:10087000FFF71EFF044607E0FFF71AFF001BB0F565
:100880007A7F01D9032038BD1148406800F48030D8
:10089000B0F5803FF0D10E48006840F400300C49BC
:1008A0000860FFF705FF044607E0FFF701FF001BA4
:1008B000B0F57A7F01D90320E5E70548406800F4E8
:1008C0000030B0F5003FF0D10020DCE740380240B6
:1008D000007000400348006840F4807001490860DF
:1008E00070470000007000402DE9F84304460026E0
:1008F00000250027A846A946207800F0010088B10D
:1009000000BFFE48006820F40000FC49086008466B
:100910000068616B0843F949086000BF606B08B963
:100920004FF00108206800F40020B0F5002F13D12B
:10093000F2488430006820F44010E16B0843EF492E
:1009400084310860E06BB0F5801F01D14FF00108E1
:10095000E06B08B94FF00109206800F48010B0F591
:10096000801F13D1E5488430006820F44000216CDA
:100970000843E24984310860206CB0F5800F01D152
:100980004FF00108206C08B94FF00109206800F011
:100990008070B0F1807F01D14FF00108207800F025
:1009A0002000202870D100BFD4483830006840F0C3
:1009B0008050D249383108600846006800F0805005
:1009C000009000BF00BFCE48006840F48070CC4962
:1009D0000860FFF76DFE064607E0FFF769FE801B23
:1009E000642802D90320BDE8F883C548006800F4F4
:1009F00080700028F1D0C1486830006800F440756C
:100A000085B3208E00F44070A8422BD0BB486830DC
:100A1000006820F44075B9486830006840F48030C0
:100A2000B649683108600846006820F480300860E4
:100A300008460560006800F0010098B1FFF738FE35
:100A4000064608E0FFF734FE801B41F288318842F9
:100A500001D90320C7E7A94868300068C0F3400007
:100A60000028EFD000BF208E00F44070B0F5407F2A
:100A70000BD1A248006820F4F810A24A216B114063
:100A800008439E49086006E010E09C48006820F496
:100A9000F8109A490860994868300068218EC1F3BF
:100AA0000B01084395496831086000BF207800F0C9
:100AB0001000102810D100BF90488430006820F04A
:100AC00080708E498431086008460068A16B084335
:100AD0008A498431086000BF208800F48040B0F566
:100AE000804F09D185488830006820F44030616E1D
:100AF0000843824988310860208800F40040B0F53E
:100B0000004F09D17D488830006820F44020A16E54
:100B100008437A4988310860206800F48030B0F5D5
:100B2000803F09D175488830006820F44010E16E9C
:100B30000843724988310860206800F40030B0F53D
:100B4000003F09D16D488830006820F44000216FD3
:100B500008436A4988310860207800F04000402846
:100B600009D166488830006820F00300616C0843B2
:100B7000624988310860207800F08000802809D11F
:100B80005E488830006820F00C00A16C08435B4987
:100B900088310860208800F48070B0F5807F09D12A
:100BA00056488830006820F03000E16C0843534913
:100BB00088310860208800F40070B0F5007F09D10A
:100BC0004E488830006820F0C000216D08434B4932
:100BD00088310860208800F48060B0F5806F09D10A
:100BE00046488830006820F44070616D08434349EE
:100BF00088310860208800F40060B0F5006F09D1EA
:100C00003E488830006820F44060A16D08433B49AD
:100C100088310860208800F48050B0F5805F09D1E9
:100C200036488830006820F44050E16D084333496D
:100C300088310860208800F40050B0F5005F09D1C9
:100C40002E488830006820F44040216E08432B492C
:100C500088310860206800F48000B0F5800F09D169
:100C600026488830006820F08060A16F084323493F
:100C700088310860206800F40010B0F5001F0FD123
:100C80001E488830006820F00060E16F08431B496F
:100C900088310860E06FB0F1006F01D14FF00109B9
:100CA000207800F00800082801D14FF001092068E1
:100CB00000F48020B0F5802F09D1104888300068FA
:100CC00020F04070616F08430C498831086020684B
:100CD00000F40000B0F5000F0AD108488830006821
:100CE00020F08050D4F8801008430449883108600F
:100CF000206800F08060B0F1806F05E008380240A5
:100D000000700040FFFCFF0F08D1CC48006820F0C5
:100D10000050D4F884100843C8490860206800F0E7
:100D20000060B0F1006F0AD1C448001F006820F0D5
:100D30000070D4F888100843C049091F0860206873
:100D400000F08050B0F1805F0AD1BC48001F0068FD
:100D500020F08060D4F88C100843B849091F08605F
:100D6000B8F1010F03D02068B0F1007F7ED1B34805
:100D70009038006820F08060B04990390860FFF733
:100D800097FC064606E0FFF793FC801B642801D918
:100D9000032028E6A94890380068C0F3C060002806
:100DA000F1D1207800F00100B8B1606BA8B9A34878
:100DB0000C380068C0F30145A0480C380068C0F347
:100DC00003676068800140EA054040EA0761207AD5
:100DD00041EA007099490C390860206800F400204D
:100DE000B0F5002F03D1E06BB0F5801F09D020686B
:100DF00000F48010B0F5801F24D1206CB0F5800F76
:100E000020D18E480C380068C0F301458B480C385F
:100E10000068C0F302776068800140EA0541207BEA
:100E200041EA006040EA077084490C390860834851
:100E3000001F006820F01F00616A491E08437F49B7
:100E4000091F0860206800F08070B0F1807F17D122
:100E50007A480C380068C0F3036578480C3800689D
:100E6000C0F3027760688101208A00E036E041EA41
:100E7000004040EA056040EA077070490C3908609C
:100E8000206800F00070B0F1007F0DD16068810132
:100E9000208A41EA0041207B41EA0061207A41EA50
:100EA000007066490C39086064489038006840F06A
:100EB0008060624990390860FFF7FAFB064606E059
:100EC000FFF7F6FB801B642801D903208BE55B4804
:100ED00090380068C0F3C0600028F1D0B9F1010F6C
:100EE0007ED156489038006820F0805053499039A0
:100EF0000860FFF7DDFB064606E0FFF7D9FB801B25
:100F0000642801D903206EE54C4890380068C0F38E
:100F100040700028F1D1206800F40020B0F5002FC7
:100F200001D1E06B38B1206800F48010B0F5801F6B
:100F300022D1206C00BB414808380068C0F301454D
:100F40003E4808380068C0F302776069800140EAD3
:100F50000541207E41EA006040EA077037490839C0
:100F60000860081D006820F4F851A06A401E41EA9C
:100F700000203249091F0860206800F40010B0F515
:100F8000001F19D1E06FB0F1006F15D12B48083860
:100F90000068C0F30365294808380068C0F3027789
:100FA00060698101208C41EA004040EA056040EA26
:100FB0000770224908390860207800F008000828E6
:100FC00020D11E4808380068C0F303651B48083864
:100FD0000068C0F301476069800140EA074000E013
:100FE0002AE040EA0561207F41EA00701349083990
:100FF0000860081D006820F44030E16A08430F498A
:10100000091F08600D489038006840F080500B4977
:1010100090390860FFF74CFB064606E0FFF748FBF7
:10102000801B642801D90320DDE40448903800685F
:10103000C0F340700028F1D00020D4E49038024082
:1010400070B504460D4600260CB9012070BD5C4801
:10105000006800F00F00A8420ED25948006820F046
:101060000F002843564908600846006800F00F004A
:10107000A84201D00120E9E7207800F00200022810
:101080001DD1207800F00400042805D14D480068E7
:1010900040F4E0504B490860207800F00800082830
:1010A00005D14848006840F460404649086045481A
:1010B000006820F0F000A1680843424908602078E9
:1010C00000F0010090B36068012807D13D4808385E
:1010D0000068C0F34040A0B90120B7E7606802286B
:1010E00007D1384808380068C0F3406048B901208B
:1010F000ACE7344808380068C0F3400008B9012064
:10110000A4E73048006820F00300616808432D49D7
:101110000860FFF7CDFA064609E0FFF7C9FA801B21
:1011200041F28831884202D903208FE707E0254841
:10113000006800F00C006168B0EB810FEDD1204831
:10114000006800F00F00A8420ED91D48006820F08A
:101150000F0028431A4908600846006800F00F0095
:10116000A84201D0012071E7207800F00400042893
:1011700007D11448006820F4E050E16808431149A1
:101180000860207800F00800082808D10D480068A1
:1011900020F46040216940EAC1000A49086000F07B
:1011A0003DF808490968C1F30311074A515CC8407A
:1011B000064908600020FFF799FA002046E7000082
:1011C000003C024008380240E836000834000020A5
:1011D00001480068704700003400002000B5FFF7A8
:1011E000F7FF04490968C1F38221034A515CC840F2
:1011F00000BD000008380240F836000800B5FFF7CF
:10120000E7FF04490968C1F34231034A515CC84011
:1012100000BD000008380240F83600082DE9F0470C
:10122000002400250026A1462548006800F00C0097
:1012300020B1042805D008283AD105E0DFF88490D1
:1012400039E0DFF8849036E01D48001F006800F0A8
:101250003F041B48001F006800F4800078B11A4862
:101260001749091F0968C1F38811A0FB01700146E5
:10127000224600233846FEF7DBFF05460EE0114804
:101280000F49091F0968C1F38811A0FB01700146CD
:10129000224600233846FEF7CBFF05460848001FCC
:1012A0000068C0F30140401C4600B5FBF6F902E0BF
:1012B000DFF8109000BF00BF4846BDE8F08700008F
:1012C000083802400024F40000127A00F8B5044601
:1012D00000260CB90120F8BD207800F0010000289C
:1012E00071D0F848006800F00C0004280DD0F548D3
:1012F000006800F00C00082813D1F248001F0068B5
:1013000000F48000B0F5800F0BD1EE48083800687B
:10131000C0F34040002869D06068002866D10120F1
:10132000D9E700BF6068B0F5803F08D1E5480838CC
:10133000006840F48030E349083908602EE06068B6
:1013400068B9E0480838006820F48030DD49083981
:1013500008600846006820F4802008601EE060688D
:10136000B0F5A02F0DD1D7480838006840F4802090
:10137000D449083908600846006840F480300860A5
:101380000CE0D0480838006820F48030CD49083996
:1013900008600846006820F48020086000BF60688C
:1013A00090B1FFF785F9054606E0FFF781F9401B8C
:1013B000642801D903208EE7C24808380068C0F3CA
:1013C00040400028F1D011E0FFF772F9054606E031
:1013D000FFF76EF9401B642801D903207BE7B94869
:1013E00008380068C0F340400028F1D1207800F0B0
:1013F0000200022869D1B348006800F00C0058B11F
:10140000B048006800F00C0008281CD1AD48001F4F
:10141000006800F48000B0B9AA4808380068C0F33A
:10142000400020B1E068012801D0012053E7A54821
:101430000838006820F0F800216940EAC100A1499D
:101440000839086041E0E06828B39E480838006821
:1014500040F001009B4908390860FFF729F905466B
:1014600006E0FFF725F9401B022801D9032032E7E7
:10147000944808380068C0F340000028F1D0914833
:101480000838006820F0F800216940EAC1008D4961
:101490000839086019E08B480838006820F001001E
:1014A000884908390860FFF703F9054606E0FFF7A9
:1014B000FFF8401B022801D903200CE781480838B7
:1014C0000068C0F340000028F1D1207800F0080047
:1014D000082836D16069D0B17A486C30006840F095
:1014E000010078496C310860FFF7E2F8054606E034
:1014F000FFF7DEF8401B022801D90320EBE6714814
:101500006C300068C0F340000028F1D019E06D484D
:101510006C30006820F001006A496C310860FFF708
:10152000C7F8054606E0FFF7C3F8401B022801D9BB
:101530000320D0E663486C300068C0F34000002808
:10154000F1D1207800F00400042874D15D483830CF
:10155000006800F0805080B900BF5A4838300068F9
:1015600040F080505749383108600846006800F064
:101570008050009000BF00BF01265348006800F46F
:101580008070B0B95048006840F480704E490860DF
:10159000FFF78EF8054606E0FFF78AF8401B64283F
:1015A00001D9032097E64848006800F480700028BD
:1015B000F2D000BFA068012808D142486830006816
:1015C00040F001003F49683108602DE0A06868B92B
:1015D0003C486830006820F001003A4968310860F2
:1015E0000846006820F0040008601DE0A068052897
:1015F0000DD134486830006840F00400314968314A
:1016000008600846006840F0010008600CE02D48C2
:101610006830006820F001002A49683108600846F7
:10162000006820F00400086000BFA068A8B1FFF7C0
:101630003FF8054609E02EE0FFF73AF8401B41F27B
:101640008831884201D9032045E61E486830006889
:10165000C0F340000028EFD013E0FFF729F805465B
:1016600008E0FFF725F8401B41F28831884201D994
:10167000032030E6134868300068C0F340000028BB
:10168000EFD1012E07D10F483830006820F080508C
:101690000C4938310860A069F0B30A48006800F0CE
:1016A0000C00082868D0A06902284DD105480838E8
:1016B000006820F08070034908390860FEF7F8FFE1
:1016C00005460AE00838024000700040FEF7F0FFCF
:1016D000401B022801D90320FDE529480068C0F31A
:1016E00040600028F2D1D4E907010843616A40EA6A
:1016F00081110122A06AC2EB500041EA00412C2076
:10170000005D41EA00613020005D41EA00701C4943
:10171000091D0860081F00E030E0006840F080709C
:10172000091F0860FEF7C4FF054606E0FEF7C0FF8C
:10173000401B022801D90320CDE511480068C0F301
:1017400040600028F2D019E00D48006820F0807059
:101750000B490860FEF7ACFF054606E0FEF7A8FF60
:10176000401B022801D90320B5E505480068C0F3F5
:1017700040600028F2D101E00120ACE50020AAE59C
:1017800000380240704702460023106800F1500301
:1017900003EB81031868704710B50023046804F157
:1017A000500303EB81031A6010BD00000121014AC0
:1017B000117070470000002010B504462068C06812
:1017C00000F48070000A78B12068806800F48050CE
:1017D00050B12046FFF7EAFF2068C06800F08000A3
:1017E00060F4C0702168C8602068C06800F40070B0
:1017F000400A78B12068806800F4005050B120465B
:10180000FFF7C0FF2068C06800F0800060F420701F
:101810002168C8604FF400300249086001206077F9
:1018200010BD0000143C014070B505460B4616463D
:101830000024286840680E4900EA0104200CD87092
:10184000C4F30420587004F03F009870C4F3423091
:1018500018705EB9D87800F059FDD870587800F04B
:1018600055FD5870987800F051FD9870002070BDBB
:101870003FFFFF0070B504460B4616460025206862
:10188000806A586020680069C0F30E009860206884
:1018900000680F4900EA0105C5F305401870C5F35B
:1018A0000620587005F07F00987005F48000000C49
:1018B00018735EB9187800F029FD1870587800F098
:1018C00025FD5870987800F021FD9870002070BDBB
:1018D0007F7F7F0010B504460CB9012010BD607FEA
:1018E00020B900202077204600F04EF802206077D3
:1018F00000BFCA202168486253202168486200BFA7
:10190000204600F01BFD40B100BFFF202168486267
:1019100000BF042060770120E0E720688068194953
:10192000084021688860216960680843616908434C
:10193000216889680843216888602168E068086137
:1019400020680169208941EA004021680861206817
:10195000C06820F080002168C8602068C06C20F05A
:1019600008002168C8642068C06CA1690843216828
:10197000C86400BFFF202168486200BF0120607773
:101980000020ABE7BFFF8FFF10B504460949206870
:1019900088420DD10848006840F4004006490860BC
:1019A000002211462920FEF7FBFE2920FEF7E8FE63
:1019B00010BD000000280040703802402DE9F841B9
:1019C00003460C461546002600277C48006840095F
:1019D0004FF47A71B0FBF1F04843009000BF187FDC
:1019E000012802D10220BDE8F8810120187700BF4C
:1019F0000220587755BB1868806800F0400000B19D
:101A000002E00020207300BF206A00B900E000BFA0
:101A1000207800F086FC4FEA0048607800F081FCF6
:101A200048EA0028A07800F07CFC48EA0008207B07
:101A300048EA004894F8240000F073FC48EA00608B
:101A4000216A0843A16940EA01061FE0186880681E
:101A500000F0400000B102E00020207300BF206AC7
:101A600000B900E000BF20780004617840EA01205E
:101A7000A1780843217B40EA014094F8241040EA11
:101A80000160216A0843A16940EA0106E1696068D2
:101A900040EA010700BFCA2019684862532019684C
:101AA000486200BFA06AB0F5807F36D118688068B0
:101AB00020F48070196888601868C06800F08000A1
:101AC00060F4C0701968C86000BF0098411E0091A2
:101AD00060B900BFFF201968486200BF0320587733
:101AE00000BF0020187700BF03207CE71868C0689B
:101AF00000F001000028E8D01868C6611868476443
:101B00001868806840F48070196888601868806878
:101B100040F480501968886035E01868806820F4C7
:101B20000070196888601868C06800F0800060F470
:101B300020701968C86000BF0098411E009160B90C
:101B400000BFFF201968486200BF0320587700BF1C
:101B50000020187700BF032045E71868C068C0F36D
:101B600040000028E8D01868066218688764186882
:101B7000806840F40070196888601868806840F4D4
:101B80000050196888600E48006840F400300C4925
:101B900008600B480830006840F4003008490831FC
:101BA000086000BFFF201968486200BF0120587715
:101BB00000BF0020187700BF00BF14E734000020EA
:101BC000003C01402DE9F04104460D461646002731
:101BD00000BF207F012802D10220BDE8F081012052
:101BE000207700BF022060774EB9687800F01000BF
:101BF000102804D1687800F0EF000A30687086B9C8
:101C0000E87800F08EFB0304687800F08AFB43EA72
:101C10000023A87800F085FB0343287843EA403787
:101C200009E0E8780004697840EA0120A9780843CF
:101C3000297840EA413700BFCA2021684862532012
:101C40002168486200BF204600F078FB60B100BF09
:101C5000FF202168486200BF0420607700BF002099
:101C6000207700BF0120B8E7164838402168486057
:101C70002068C06820F080002168C8602068806803
:101C800000F0200080B9204600F0B4F860B100BF39
:101C9000FF202168486200BF0420607700BF002059
:101CA000207700BF012098E700BFFF20216848622D
:101CB00000BF0120607700BF0020207700BF00BF79
:101CC0008BE700003FFFFF002DE9F04104460D4681
:101CD0001646002700BF207F012802D10220BDE860
:101CE000F0810120207700BF02206077CEB9206804
:101CF000806800F0400000B102E00020287300BFBF
:101D0000287800F00EFB0304687800F00AFB43EA31
:101D10000023A87800F005FB0343287B43EA004733
:101D200012E02068806800F0400000B102E000206E
:101D3000287300BF28780004697840EA0120A97858
:101D40000843297B40EA014700BFCA202168486256
:101D500053202168486200BF204600F0EFFA60B1CE
:101D600000BFFF202168486200BF0420607700BFE9
:101D70000020207700BF0120B1E71D4838402168CE
:101D800008602068806820F4802021688860D5E998
:101D90000401084321688968084321688860206835
:101DA000C06820F080002168C8602068806800F06A
:101DB000200080B9204600F01DF860B100BFFF2070
:101DC0002168486200BF0420607700BF00202077B0
:101DD00000BF012083E700BFFF202168486200BFE9
:101DE0000120607700BF0020207700BF00BF76E7AA
:101DF0007F7F7F0070B5044600252068C06820F012
:101E0000A0002168C860FEF753FC054607E0FEF716
:101E10004FFC401BB0F57A7F01D9032070BD2068CC
:101E2000C06800F020000028F1D00020F6E770B56F
:101E300004462546681EB0F1807F01D301200FE0E3
:101E4000681E4FF0E02148610F214FF0FF3000F095
:101E50000FFE00204FF0E02188610720086100207C
:101E600070BD10B504460CB9012010BDA06900B1C9
:101E700000E000BF606F28B9002084F870002046A1
:101E800000F02AF8242060672068006820F0010034
:101E900021680860204600F0C7FB012800D1E4E774
:101EA000606A10B1204600F01FFB2068406820F4F3
:101EB0009040216848602068806820F02A002168EE
:101EC00088602068006840F00100216808602046B2
:101ED00000F086FBC9E7000010B586B00446142167
:101EE00001A8FEF7DDF91949206888422CD100BF0E
:101EF0001748006840F480201549086008460068CB
:101F000000F48020009000BF00BF00BF10481038D0
:101F1000006840F008000E49103908600846006863
:101F200000F00800009000BF00BF4FF44070019027
:101F300002200290002003900320049007200590C7
:101F400001A90448FEF79AFA06B010BD0048004007
:101F500040380240000C02402DE9F84F04460E467E
:101F600017469946606F20285CD106B117B9012049
:101F7000BDE8F88F00BF94F87000012801D102205D
:101F8000F6E7012084F8700000BF0020E067212000
:101F90006067FEF78DFB8246A4F85070A4F852707B
:101FA000A068B0F5805F04D1206910B90025B04663
:101FB00002E035464FF000081DE053460022802124
:101FC0002046CDF8009000F001FD08B10320CFE7D6
:101FD00045B9B8F80000C0F308002168886208F12C
:101FE000020803E02878216888626D1CB4F852006A
:101FF000401EA4F85200B4F852000028DDD1534628
:10200000002240212046CDF8009000F0DFFC08B10E
:102010000320ADE72020606700BF002084F8700037
:1020200000BFA5E70220A3E700BFFEE700B587B029
:10203000142102A8FEF734F900BF8B48006840F075
:102040000400894908600846006800F00400019017
:1020500000BF00BF00BF0846006840F08000086075
:102060000846006800F08000019000BF00BF00BF7C
:102070000846006840F0010008600846006800F06B
:102080000100019000BF00BF00BF0846006840F09B
:10209000020008600846006800F00200019000BFDE
:1020A00000BF00BF0846006840F00800086008460E
:1020B000006800F00800019000BF00BF00BF0846A4
:1020C000006840F0400008600846006800F04000EA
:1020D000019000BF00BF002244F281016348FEF777
:1020E000E1FA002240216248FEF7DCFA4FF44C503E
:1020F0000290604803900020049002A95E48FEF719
:10210000BDF93220029002200390002004900320A9
:1021100005900B20069002A95748FEF7AFF9012061
:10212000029000200390049002A95448FEF7A6F9FB
:102130008620029002200390002004900320059046
:102140000B20069002A94D48FEF798F9082002904E
:10215000484803900020049002A94848FEF78EF9F1
:1021600044F2810002900120039000200490059029
:1021700002A93E48FEF782F9022002900020039057
:10218000049002A93948FEF779F94FF40050029003
:102190000220039000200490032005900B2006905D
:1021A00002A93248FEF76AF940200290012003900C
:1021B00000200490059002A92D48FEF75FF98020C9
:1021C000029000200390049002A92948FEF756F9D6
:1021D0004FF4E85002900220039000200490032066
:1021E00005900A20069002A92448FEF747F94FF40B
:1021F0000070029000200390049002A91F48FEF78F
:102200003DF94FF44060029000200390049002A931
:102210001948FEF733F94FF4205002900220039042
:1022200000200490032005900B20069002A910487E
:10223000FEF724F9002202210920FEF7B1FA092055
:10224000FEF79EFA012202211720FEF7A9FA1720B5
:10225000FEF796FA002203212820FEF7A1FA282093
:10226000FEF78EFA07B000BD30380240000402408D
:102270000018024000001110000802400000024057
:1022800010B50A480A490860002048607F210848C4
:102290008160FF21C1600021016141618161FFF71F
:1022A00019FB08B1FEF772F810BD000000280040CD
:1022B0007400002010B50D480D4908604FF4E1305E
:1022C000486000210A488160C16001610C214161C0
:1022D00000218161C1610162002005494862084610
:1022E000FFF7BFFD08B1FEF751F810BD00480040F0
:1022F0009400002000BFFEE77047704710B5024809
:10230000FFF75AFA10BD000074000020014600BF1C
:10231000080900EB8000420001F00F001044C0B239
:1023200070470146002203E0521CA1F10A00C1B22D
:102330000A29F9DA100741EA1060704770B50446BF
:1023400000252068C06800F04000A0B9681E216820
:10235000C860FEF7ADF9054607E0FEF7A9F9401B96
:10236000B0F57A7F01D9032070BD2068C06800F005
:1023700040000028F1D00020F6E7704710B5FEF7C6
:102380009DF903480078401C0149087010BD000009
:102390001E00002000B5B7B034212AA8FDF780FF49
:1023A000142125A8FDF77CFF902101A8FDF778FFF7
:1023B000FEF790FA3148006820F018002F490860B5
:1023C00000BF2E483038006840F080502B4930392B
:1023D00008600846006800F08050009000BF00BF11
:1023E00000BF2748006840F440402549086008467F
:1023F000006800F44040009000BF00BF05202A9014
:1024000000042B9001202C900220309041052AA836
:10241000C16104210162D821416202218162C1624D
:10242000FEF754FF08B1FDF7B1FFFEF70BFA08B154
:10243000FDF7ACFF0F20259002202690002027906A
:102440004FF4A05028904FF480502990072125A8E0
:10245000FEF7F6FD08B1FDF799FF4FF4907001907B
:102460004FF480700D900020149001A8FEF73CFA04
:1024700008B1FDF78BFF37B000BD00007038024097
:10248000007000401448006840F470001249086071
:102490001248006840F001001049086000200F4910
:1024A000083108600D4800680D4908400B49086074
:1024B0000C48091D0860081F006820F48020091FCF
:1024C0000860002005490C3108604FF000600249A7
:1024D000803908607047000088ED00E00038024055
:1024E000FFFFF6FE1030002490F8241001F00101E7
:1024F00039B10168496821F40031826A11430268E8
:10250000516090F8241001F00201022907D10168FE
:10251000496821F48031C26A11430268516090F821
:10252000241001F00401042907D10168496821F44D
:102530008021026B11430268516090F8241001F071
:102540000801082907D10168496821F40041426B5C
:1025500011430268516090F8241001F01001102915
:1025600007D10168896821F48051826B11430268A8
:10257000916090F8241001F02001202907D1016812
:10258000896821F40051C26B11430268916090F890
:10259000241001F04001402913D10168496821F459
:1025A0008011026C114302685160016CB1F5801F0B
:1025B00007D10168496821F4C001426C11430268E7
:1025C000516090F8241001F08001802907D1016842
:1025D000496821F40021826C114302685160704700
:1025E00038B504460020E067FEF762F8054620682B
:1025F000006800F0080008280CD16FF07E402B46E0
:1026000000224FF400110090204600F0DFF908B1DD
:10261000032038BD20206067A06700BF002084F839
:10262000700000BF00BFF4E72DE9F0470446002624
:10263000B1462169A068084361690843E16940EA3D
:10264000010720680068D5490840384321680860C0
:102650002068406820F44050E168084321684860E1
:10266000A769206A07432068806820F430603843F7
:102670002168886000BFCA492068884216D1C948CD
:10268000006800F0030030B1012808D0022804D00F
:10269000032808D105E0012507E0022505E004250F
:1026A00003E0082501E0102500BFC9E0BE4920680D
:1026B000884216D1BB48006800F00C0030B10428F5
:1026C00008D0082804D00C2808D105E0002507E030
:1026D000022505E0042503E0082501E0102500BFE0
:1026E000AEE0B2492068884216D1AE48006800F0DA
:1026F000300030B1102808D0202804D0302808D16C
:1027000005E0002507E0022505E0042503E0082593
:1027100001E0102500BF93E0A5492068884216D14A
:10272000A048006800F0C00030B1402808D08028E0
:1027300004D0C02808D105E0002507E0022505E007
:10274000042503E0082501E0102500BF78E0994941
:102750002068884219D19348006800F4407048B15D
:10276000B0F5807F0AD0B0F5007F05D0B0F5407F8E
:1027700008D105E0002507E0022505E0042503E077
:10278000082501E0102500BF5AE08B4920688842E7
:1027900019D18448006800F4406048B1B0F5806FFA
:1027A0000AD0B0F5006F05D0B0F5406F08D105E054
:1027B000012507E0022505E0042503E0082501E0E6
:1027C000102500BF3CE07D492068884219D175483A
:1027D000006800F4405048B1B0F5805F0AD0B0F511
:1027E000005F05D0B0F5405F08D105E0002507E0A7
:1027F000022505E0042503E0082501E0102500BFBF
:102800001EE06F492068884219D16648006800F4CC
:10281000404048B1B0F5804F0AD0B0F5004F05D028
:10282000B0F5404F08D105E0002507E0022505E09E
:10283000042503E0082501E0102500BF00E0102575
:1028400000BFE069B0F5004F57D1042D28D005DC5A
:102850004DB1012D11D0022D36D118E0082D29D00F
:10286000102D31D131E0FEF7B9FC4000616800EB7A
:102870005100B0FBF1F086B22AE0FEF7BFFC400049
:10288000616800EB5100B0FBF1F086B220E04D49E9
:10289000606801EB50006168B0FBF1F086B217E0B0
:1028A000FEF7BCFC4000616800EB5100B0FBF1F0AA
:1028B00086B20DE04FF48031606801EB5000616832
:1028C000B0FBF1F086B203E000BF4FF0010900BF9A
:1028D00000BF102E0ED3B6F5803F0BD24FF6F0702E
:1028E00006EA0008C6F3420048EA00082068C0F87B
:1028F0000C804DE04FF001094AE0042D26D005DCA4
:102900004DB1012D10D0022D33D116E0082D26D067
:10291000102D2ED12EE0FEF761FC616800EB510016
:10292000B0FBF1F086B228E0FEF768FC616800EBCE
:102930005100B0FBF1F086B21FE02349606801EB63
:1029400050006168B0FBF1F086B216E0FEF766FC5D
:10295000616800EB5100B0FBF1F086B20DE04FF47E
:102960000041606801EB50006168B0FBF1F086B295
:1029700003E000BF4FF0010900BF00BF102E05D3D8
:10298000B6F5803F02D22068C66001E04FF0010931
:102990000020206660664846BDE8F087F369FFEFD7
:1029A00000100140903802400044004000480040C0
:1029B000004C0040005000400014014000780040EE
:1029C000007C00400048E8010024F4002DE9F041BB
:1029D00004460D4617469846069E1FE0701CE8B157
:1029E000FDF766FEA0EB0800B04200D8B6B920683B
:1029F000006820F4D070216808602068806820F0AA
:102A000001002168886020206067A06700BF002067
:102A100084F8700000BF0320BDE8F0812068C06921
:102A20002840A84201D1012000E00020B842D5D0C2
:102A30000020F1E700BFFEE70FB4084B10B504A972
:102A400002AA039800F038F8044602A9002000F01A
:102A5000D4F9204610BC5DF814FB0000FB2D0008E3
:102A600002480068C0F30220704700000CED00E04F
:102A700010B5002804DB0A07130E054A135406E0BC
:102A80000A07140E034A00F00F031B1FD45410BD95
:102A900000E400E018ED00E002E008C8121F08C1E1
:102AA000002AFAD170477047002001E001C1121FCF
:102AB000002AFBD1704700002DE9FF4F8BB08846FC
:102AC0000546002606E025280BD0DDE90D129047CB
:102AD0006D1C761C28780028F5D10FB03046BDE873
:102AE000F08F0024A146A2460122AE4900E0044333
:102AF00015F8013F203B02FA03F00842F7D128788D
:102B00002A2810D06FF02F022878A0F1300109296F
:102B100015D809EB890102EB410144F0020400EBF6
:102B200001096D1CF0E758F8041B5FEA010903D5A1
:102B300044F40054C9F1000944F002046D1C2878E3
:102B40002E2817D115F8010F44F004042A280ED0BE
:102B50006FF02F022878A0F1300109290AD80AEB7A
:102B60008A0102EB410100EB010A6D1CF2E758F803
:102B700004AB6D1C28786C280FD006DC4C2817D0CD
:102B800068280DD06A2814D104E0742810D07A285F
:102B90000FD10DE044F400140AE044F4801401E085
:102BA00044F440146978814202D104F580146D1C0C
:102BB0006D1C2878692865D006DC00288DD0632834
:102BC00027D0642806D15DE06E2808D073282AD06B
:102BD000752877D0DDE90D129047761CE0E0C4F34C
:102BE0000250022809D003280DD0D8F8001004287C
:102BF0000DD00E6008F10408D2E0D8F80010F217EA
:102C0000C1E90062F6E7D8F800100E80F2E70E7016
:102C1000F0E718F8041B8DF8001000208DF8010073
:102C2000EB46012003E058F804BB4FF0FF3061078A
:102C30004FF0000701D40AE07F1C57450DDA8742A8
:102C4000FADB1BF807100029F6D106E07F1C87424B
:102C5000FCDB1BF807100029F8D1DDE90D23A9EBF7
:102C600007008146214600F0B1F83044C61904E05F
:102C7000DDE90D121BF8010B90477F1EF8D22146AB
:102C8000484688E058F8040BC4F302514FF00A0B91
:102C9000032900D100B2042900D140B2002802DA91
:102CA00040422D2102E0210505D52B218DF824106D
:102CB000012104E006E0E10710D02021F6E708AF8B
:102CC000089113E058F8040BC4F302514FF00A0BBB
:102CD000032900D180B2042900D1C0B20021EEE75F
:102CE0005946FDF7EFFA303107F8011D0028F7D1FA
:102CF000ADEB070000F1200B600702D524F480340F
:102D000001E04FF0010ADA4502DDAAEB0B0000E01A
:102D10000020824600EB0B0108980144A9EB01005A
:102D20000A90E00306D4DDE90D2321460A9800F05D
:102D30004DF806444FF0000908E009A911F8090010
:102D4000DDE90D12904709F10109761C08998945C2
:102D5000F3DBE0030CD5DDE90D2321460A9800F0F2
:102D600035F8064404E0DDE90D1230209047761C6A
:102D7000BAF10001AAF1010AF5DC05E0DDE90D1266
:102D800017F8010B9047761CBBF10001ABF1010B6A
:102D9000F4DC0A982146DDE90D2300F005F806442D
:102DA0006D1C97E6092801002DE9F0410446002535
:102DB0001E461746880404D405E039462020B04753
:102DC0006D1C641EF9D52846BDE8F0812DE9F0415F
:102DD000044600251E469046C80301D5302700E072
:102DE0002027880404D505E041463846B0476D1CCD
:102DF000641EF9D52846BDE8F0810A68531C0B60B3
:102E00001070704710B55748006803282CD15648F9
:102E10000068012828D181025448FDF73BFC0128B5
:102E200005D153480078401C514908700BE04FF41D
:102E300000614E48FDF72EFC012804D14C48007873
:102E4000401E4B4908704A4800783B2802DD0020AC
:102E50004749087046480078002802DA3B20444978
:102E6000087000F0D9F87AE03E48006803282CD1B9
:102E70003D480068022828D141023C48FDF70AFC81
:102E8000012805D13B480078401C3A4908700BE006
:102E90004FF400613548FDF7FDFB012804D13548AA
:102EA0000078401E33490870324800783B2802DD24
:102EB0000020304908702F480078002802DA3B20B3
:102EC0002C49087000F0A8F849E02648006803285B
:102ED00023D12548006803281FD12548007878B9F8
:102EE0002448007860B900202349087003E000F00E
:102EF00089FB00F091F81C4800680328F7D02EE009
:102F000000201D49087003E000F032FB00F084F857
:102F1000154800680328F7D021E01248006803280C
:102F20001DD111480068042819D1002012490870E9
:102F3000124803781248027812A11648FFF77CFD68
:102F40001448FDF7B8F984B24FF47A732246114958
:102F50001148FFF701F84FF47A70FDF719FA00F005
:102F60005BF810BD080000200400002000080240AB
:102F70001F000020200000201E0000202400002050
:102F80002300002025303264203A20253032640AA4
:102F90000D000000560000209400002000B589B00C
:102FA000002202A91048FEF765FC002208A90E487D
:102FB000FEF73AFC9DF80A0000909DF809309DF854
:102FC00008200AA10E48FFF737FD9DF8230000F501
:102FD000FA6000909DF821309DF8222009A10D484B
:102FE000FFF72AFD09B000BD7400002025303264CF
:102FF0003A253032643A253032640A0D0000000070
:1030000038000020253032642D253032642D2532E1
:10301000640A0D004700002010B50F4803780F48E0
:1030200002780FA11248FFF707FD1148FDF743F999
:1030300084B24FF47A7322460D490E48FEF78CFF96
:103040004FF47A70FDF7A4F94FF47A7302220D2140
:103050000848FEF781FF10BD200000201F0000205F
:1030600025303264203A20253032640D0000000003
:103070005600002094000020FDF72CFBFFF78AF992
:10308000FEF7D4FFFFF7FCF8FFF714F901213B48E6
:10309000FEF779FB43F2F221884201D000F012F9E9
:1030A00000F07AF869E001E000F0DEFA34480078D8
:1030B0000128F9D033480068C8B9FFF76FFF00BF97
:1030C00031480068C069C0F380100028F8D02F484C
:1030D000FDF7F1F884B24FF47A7322462B492A485F
:1030E000FEF73AFF4FF47A70FDF752F945E02548B4
:1030F000006801281BD1FFF751FF00BF224800687C
:10310000C069C0F380100028F8D02048FDF7D3F83C
:1031100084B24FF47A7322461C491B48FEF71CFF09
:1031200000F0D0F84FF47A70FDF732F925E0154839
:103130000068022813D1FFF731FF1548FDF7BBF8EF
:1031400084B24FF47A73224611490F48FEF704FF08
:1031500010480068002810DD00F0B4F80DE00948C0
:103160000068032802D1FFF74DFE06E0054800681D
:10317000042802D100200349086094E7740000206D
:1031800000000020080000209400002038000020EB
:10319000470000200400002000B58BB043480068C1
:1031A00001282ED181024248FDF774FA012809D185
:1031B00040480088401C3F4908804FF4FA70FDF7F2
:1031C000E7F80FE04FF400613948FDF763FA012892
:1031D00008D138480088401E364908804FF4FA70FC
:1031E000FDF7D6F833480088232802DD0020314956
:1031F000088030480088002835DA23202D490880CF
:1032000031E02A48006802282DD141022848FDF704
:1032100041FA012809D128480088401C2649088025
:103220004FF4FA70FDF7B4F80FE04FF40061204856
:10323000FDF730FA012808D11F480088401E1E49BA
:1032400008804FF4FA70FDF7A3F81B48008859284E
:1032500002DD00201849088017480088002802DA9B
:10326000592015490880134800788DF8000012484D
:1032700000788DF8010000208DF802000190049084
:1032800005900690079008900C4800788DF824006F
:103290004FF480700A90012269460948FEF78EFBC0
:1032A00008B1FDF773F80BB000BD0000040000206A
:1032B000000802401A0000201C000020140000201A
:1032C0007400002000B587B0A0480068012832D102
:1032D0009F48006801282ED181029E48FDF7DAF947
:1032E000012809D19C480088401C9B4908804FF464
:1032F000FA70FDF74DF80FE04FF400619548FDF7C7
:10330000C9F9012808D194480088401E92490880D4
:103310004FF4FA70FDF73CF88F480088232802DD4F
:1033200000208D4908808C480088002839DA232045
:103330008949088035E085480068012831D18448F2
:10334000006802282DD141028248FDF7A3F9012827
:1033500009D182480088401C804908804FF4FA70E7
:10336000FDF716F80FE04FF400617A48FDF792F987
:10337000012808D179480088401E784908804FF418
:10338000FA70FDF705F875480088602802DD002016
:103390007249088071480088002802DA59206F4974
:1033A00008806A48006802283AD169480068012804
:1033B00036D181026748FDF76DF9012809D16848C7
:1033C0000088401C664908804FF4FA70FCF7E0FF63
:1033D0000FE04FF400615F48FDF75CF9012808D168
:1033E0005F480088401E5E4908804FF4FA70FCF781
:1033F000CFFF5B480088302806DD0120584908804F
:103400004FF4FA70FCF7C4FF5548008801285FDAD2
:103410003020534908804FF4FA70FCF7B9FF57E0A9
:103420004A480068022832D14948006802282ED153
:1034300041024848FDF72EF9012809D14948008882
:10344000401C484908804FF4FA70FCF7A1FF0FE0D8
:103450004FF400613F48FDF71DF9012808D14148AC
:103460000088401E3F4908804FF4FA70FCF790FF37
:103470003C480088122802DD01203A49088039487A
:103480000088012824DA12203649088020E02F48DD
:10349000006802281CD12E480068032818D14FF478
:1034A00080612C48FDF7F6F8012805D12E480088E8
:1034B000401C2D4908800BE04FF400612548FDF7C2
:1034C000E9F8012804D128480088401E26490880D0
:1034D0002148008820490880204800881F4908802A
:1034E0001D4800788DF80400084600788DF8050026
:1034F00030208DF80600002005900690012201A9D9
:103500001A48FEF7E1FB08B1FCF740FF05208DF8F3
:103510000000144800788DF80100114800788DF8FB
:103520000200114800788DF80300012269460F4817
:10353000FEF748FB08B1FCF729FF43F2F222012114
:103540000A48FEF729F907B000BD00000800002076
:10355000040000200008024010000020120000209B
:103560001400002016000020180000207400002025
:103570001E4800784FF47A7190FBF1F201FB1200C3
:1035800050B31B480078401E19490870084600785F
:103590003C2190FBF1F201FB1200E8B915480078DC
:1035A00090B91348007878B9002012490870104982
:1035B000087010480078104908700D4800780F49CD
:1035C000087004200E4908603B200949087009482A
:1035D0000078401E074908700648007806490870C0
:1035E0000348007805490870704700001E0000205D
:1035F000200000201F0000202300002024000020C5
:1036000004000020134800784FF47A7190FBF1F227
:1036100001FB1200A0B110480078401C0E49087050
:10362000084600783C2190FBF1F201FB120038B90A
:1036300000200949087009480078401C07490870B3
:103640000648007806490870034800780549087064
:10365000704700001E000020200000201F000020F6
:1036600023000020240000203EB520E017A207CA56
:103670008DE80700012211461748FDF713F800BF37
:1036800016480068C069C0F380100028F8D068466A
:10369000FCF711FE84B24FF47A73224669460F4854
:1036A000FEF75AFC4FF47A70FCF772FE00BF082157
:1036B0000B48FCF7EFFF0028D8D000220121064874
:1036C000FCF7F0FF0020074908703EBD414C415215
:1036D0004D21212100000000000402409400002040
:1036E0000000024000000020000000000000000078
:1036F0000102030406070809000000000102030498
:10370000203700080000002038000000982A000838
:103710005837000838000020E0040000A82A0008FC
:103720000000000000000000000000000000000099
:1037300010002000220011001900100022000000DB
:103740000000000000000000000000001000000069
:08375000010000000024F40058
:04000005080001F9F5
:00000001FF
